{
  "contractName": "Charity",
  "abi": [
    {
      "inputs": [
        {
          "internalType": "string",
          "name": "_name",
          "type": "string"
        },
        {
          "internalType": "uint256",
          "name": "_targetAmount",
          "type": "uint256"
        },
        {
          "internalType": "address payable",
          "name": "_creator",
          "type": "address"
        }
      ],
      "stateMutability": "nonpayable",
      "type": "constructor"
    },
    {
      "inputs": [],
      "name": "amountRaised",
      "outputs": [
        {
          "internalType": "uint256",
          "name": "",
          "type": "uint256"
        }
      ],
      "stateMutability": "view",
      "type": "function"
    },
    {
      "inputs": [
        {
          "internalType": "address",
          "name": "",
          "type": "address"
        }
      ],
      "name": "donations",
      "outputs": [
        {
          "internalType": "uint256",
          "name": "",
          "type": "uint256"
        }
      ],
      "stateMutability": "view",
      "type": "function"
    },
    {
      "inputs": [],
      "name": "name",
      "outputs": [
        {
          "internalType": "string",
          "name": "",
          "type": "string"
        }
      ],
      "stateMutability": "view",
      "type": "function"
    },
    {
      "inputs": [],
      "name": "owner",
      "outputs": [
        {
          "internalType": "address payable",
          "name": "",
          "type": "address"
        }
      ],
      "stateMutability": "view",
      "type": "function"
    },
    {
      "inputs": [],
      "name": "targetAmount",
      "outputs": [
        {
          "internalType": "uint256",
          "name": "",
          "type": "uint256"
        }
      ],
      "stateMutability": "view",
      "type": "function"
    },
    {
      "inputs": [],
      "name": "donate",
      "outputs": [],
      "stateMutability": "payable",
      "type": "function"
    },
    {
      "inputs": [],
      "name": "withdraw",
      "outputs": [],
      "stateMutability": "nonpayable",
      "type": "function"
    },
    {
      "inputs": [],
      "name": "getBalance",
      "outputs": [
        {
          "internalType": "uint256",
          "name": "",
          "type": "uint256"
        }
      ],
      "stateMutability": "view",
      "type": "function"
    }
  ],
  "bytecode": "0x608060405234801561001057600080fd5b506040516107a63803806107a68339818101604052606081101561003357600080fd5b810190808051604051939291908464010000000082111561005357600080fd5b8382019150602082018581111561006957600080fd5b825186600182028301116401000000008211171561008657600080fd5b8083526020830192505050908051906020019080838360005b838110156100ba57808201518184015260208101905061009f565b50505050905090810190601f1680156100e75780820380516001836020036101000a031916815260200191505b506040526020018051906020019092919080519060200190929190505050826000908051906020019061011b92919061016c565b508160018190555080600260006101000a81548173ffffffffffffffffffffffffffffffffffffffff021916908373ffffffffffffffffffffffffffffffffffffffff160217905550505050610209565b828054600181600116156101000203166002900490600052602060002090601f016020900481019282601f106101ad57805160ff19168380011785556101db565b828001600101855582156101db579182015b828111156101da5782518255916020019190600101906101bf565b5b5090506101e891906101ec565b5090565b5b808211156102055760008160009055506001016101ed565b5090565b61058e806102186000396000f3fe60806040526004361061007b5760003560e01c80638da5cb5b1161004e5780638da5cb5b1461017d578063953b8fb8146101be578063cc6cb19a146101e9578063ed88c68e1461024e5761007b565b806306fdde031461008057806312065fe0146101105780633ccfd60b1461013b5780637b3e5e7b14610152575b600080fd5b34801561008c57600080fd5b50610095610258565b6040518080602001828103825283818151815260200191508051906020019080838360005b838110156100d55780820151818401526020810190506100ba565b50505050905090810190601f1680156101025780820380516001836020036101000a031916815260200191505b509250505060405180910390f35b34801561011c57600080fd5b506101256102f6565b6040518082815260200191505060405180910390f35b34801561014757600080fd5b506101506102fe565b005b34801561015e57600080fd5b5061016761042e565b6040518082815260200191505060405180910390f35b34801561018957600080fd5b50610192610434565b604051808273ffffffffffffffffffffffffffffffffffffffff16815260200191505060405180910390f35b3480156101ca57600080fd5b506101d361045a565b6040518082815260200191505060405180910390f35b3480156101f557600080fd5b506102386004803603602081101561020c57600080fd5b81019080803573ffffffffffffffffffffffffffffffffffffffff169060200190929190505050610460565b6040518082815260200191505060405180910390f35b610256610478565b005b60008054600181600116156101000203166002900480601f0160208091040260200160405190810160405280929190818152602001828054600181600116156101000203166002900480156102ee5780601f106102c3576101008083540402835291602001916102ee565b820191906000526020600020905b8154815290600101906020018083116102d157829003601f168201915b505050505081565b600047905090565b3373ffffffffffffffffffffffffffffffffffffffff16600260009054906101000a900473ffffffffffffffffffffffffffffffffffffffff1673ffffffffffffffffffffffffffffffffffffffff16146103c1576040517f08c379a000000000000000000000000000000000000000000000000000000000815260040180806020018281038252600b8152602001807f4e6f7420616c6c6f77656400000000000000000000000000000000000000000081525060200191505060405180910390fd5b600260009054906101000a900473ffffffffffffffffffffffffffffffffffffffff1673ffffffffffffffffffffffffffffffffffffffff166108fc6003549081150290604051600060405180830381858888f1935050505015801561042b573d6000803e3d6000fd5b50565b60035481565b600260009054906101000a900473ffffffffffffffffffffffffffffffffffffffff1681565b60015481565b60046020528060005260406000206000915090505481565b600154346003540111156104d7576040517f08c379a00000000000000000000000000000000000000000000000000000000081526004018080602001828103825260228152602001806105376022913960400191505060405180910390fd5b3460036000828254019250508190555034600460003373ffffffffffffffffffffffffffffffffffffffff1673ffffffffffffffffffffffffffffffffffffffff1681526020019081526020016000206000828254019250508190555056fe536f7272792c20776520686176652072656163686564206f7572207461726765742ea26469706673582212209120d849d4efff88c795378affdd39dbf6c23c94981c1e3102be9872431ad36364736f6c63430007000033",
  "immutableReferences": {},
  "source": "// SPDX-License-Identifier: GPL-3.0\r\n\r\npragma solidity >=0.7.0 <0.9.0;\r\n\r\ncontract CharityFactory {\r\n    mapping(address => address[]) public charityList; \r\n    uint charityCount = 0;\r\n\r\n    function createCharity(string memory _name, uint _targetAmount) public {\r\n        address deployedAddress = address(new Charity(_name, _targetAmount, payable(msg.sender)));\r\n        charityList[msg.sender].push(deployedAddress);\r\n        charityCount++;\r\n    }\r\n}\r\n\r\ncontract Charity {\r\n    string public name;\r\n    uint public targetAmount;\r\n    address payable public owner;\r\n    uint public amountRaised;\r\n    mapping(address => uint) public donations;\r\n\r\n    constructor(string memory _name, uint _targetAmount, address payable _creator) {\r\n        name = _name;\r\n        targetAmount = _targetAmount;\r\n        owner = _creator;\r\n    }\r\n\r\n    modifier onlyOwner{\r\n        require(owner == msg.sender, \"Not allowed\");\r\n        _;\r\n    }\r\n\r\n    function donate() public payable {\r\n        require(amountRaised + msg.value <= targetAmount, \"Sorry, we have reached our target.\");\r\n        amountRaised += msg.value;\r\n        donations[msg.sender] += msg.value;\r\n    }\r\n\r\n    function withdraw() onlyOwner public{\r\n        owner.transfer(amountRaised);\r\n    }\r\n\r\n    function getBalance() public view returns(uint){\r\n        return address(this).balance;\r\n    }\r\n\r\n}",
  "sourcePath": "C:\\Users\\Aabiskar Pandey\\Documents\\Developments\\Power Workshop\\react-blockchain\\contracts\\CharityFactory.sol",
  "compiler": {
    "name": "solc",
    "version": "0.7.0+commit.9e61f92b.Emscripten.clang"
  },
  "schemaVersion": "3.4.10",
  "updatedAt": "2022-11-13T04:02:32.110Z",
  "devdoc": {
    "kind": "dev",
    "methods": {},
    "version": 1
  },
  "userdoc": {
    "kind": "user",
    "methods": {},
    "version": 1
  }
}